:020000040000FA
:100000000C9462000C948A000C948A000C948A0070
:100010000C948A000C948A000C948A000C948A0038
:100020000C948A000C948A000C948A000C948A0028
:100030000C948A000C948A000C948A000C948A0018
:100040000C943C060C948A000C948A000C948A0050
:100050000C948A000C948A000C948A000C948A00F8
:100060000C948A000C948A000000000024002700F1
:100070002A0000000000250028002B0000000000DE
:1000800023002600290004040404040404040202DA
:100090000202020203030303030301020408102007
:1000A0004080010204081020010204081020000012
:1000B0000008000201000003040700000000000027
:1000C0000000F40711241FBECFEFD8E0DEBFCDBF84
:1000D00011E0A0E0B1E0E2EFF0E102C005900D9286
:1000E000AE32B107D9F721E0AEE2B1E001C01D9216
:1000F000A637B207E1F710E0C2E6D0E004C02197CE
:10010000FE010E947108C136D107C9F70E94860618
:100110000C9477080C940000AF92BF92CF92DF92BC
:10012000EF92FF920F931F93CF93DF936C017B01AC
:100130008B01040F151FEB015E01AE18BF08C0173D
:10014000D10759F06991D601ED91FC910190F081B0
:10015000E02DC6010995892B79F7C501DF91CF9173
:100160001F910F91FF90EF90DF90CF90BF90AF90D5
:100170000895833081F028F4813099F08230A9F01D
:1001800008958730A9F08830C9F08430B1F48091A7
:1001900080008F7D03C0809180008F7780938000E6
:1001A000089584B58F7784BD089584B58F7DFBCF86
:1001B0008091B0008F778093B00008958091B00057
:1001C0008F7DF9CFCF93DF93282F30E0F901E255EF
:1001D000FF4F8491F901E656FF4FD491F901EA5798
:1001E000FF4FC491CC23A1F081110E94B900EC2FE4
:1001F000F0E0EE0FFF1FE458FF4FA591B491EC9192
:10020000ED2381E090E009F480E0DF91CF91089543
:1002100080E090E0FACF1F93CF93DF93282F30E058
:10022000F901E255FF4F8491F901E656FF4FD49151
:10023000F901EA57FF4FC491CC23A9F0162F811181
:100240000E94B900EC2FF0E0EE0FFF1FEE58FF4FB9
:10025000A591B4918FB7F894EC91111108C0D09585
:10026000DE23DC938FBFDF91CF911F910895DE2BAA
:10027000F8CFCF93DF9390E0FC01E656FF4F249137
:100280008A579F4FFC0184918823D1F090E0880F1A
:10029000991FFC01E859FF4FA591B491FC01EE585C
:1002A000FF4FC591D49161110EC09FB7F8948C9106
:1002B000E22FE0958E238C932881E223E8839FBF71
:1002C000DF91CF9108958FB7F894EC91E22BEC93E6
:1002D0008FBFF6CF3FB7F8948091310190913201F2
:1002E000A0913301B091340126B5A89B05C02F3FE2
:1002F00019F00196A11DB11D3FBFBA2FA92F982F4C
:100300008827BC01CD01620F711D811D911D42E046
:10031000660F771F881F991F4A95D1F70895089592
:1003200090E080E00895CF93C82F0E94E2000197EB
:1003300039F480912E0190912F0181309105C1F007
:100340008C2F0E94E2008130910531F420912E0122
:1003500030912F01232B41F08C2F0E94E200892B3A
:1003600049F090E080E004C090932F0180932E012B
:10037000CF91089580912E0190912F01019789F7D7
:1003800010922F0110922E01F3CF8F929F92AF9275
:10039000BF920F931F93CF93DF93CDB7DEB7A19793
:1003A0000FB6F894DEBF0FBECDBF19A2423008F4DD
:1003B0004AE08E010F5D1F4F842E912CB12CA12C91
:1003C000A50194010E943208E62FB901CA01EA3062
:1003D00044F5E05DD801EE938D01232B242B252BD2
:1003E00079F790E080E0109769F0FD01019000201E
:1003F000E9F73197AF014A1B5B0BBD018EE591E038
:100400000E948C00A1960FB6F894DEBF0FBECDBF40
:10041000DF91CF911F910F91BF90AF909F908F90E0
:100420000895E95CD7CFFC0101900020E9F73197EE
:10043000AF01481B590BBC018EE591E00C948C0078
:10044000CF93DF93EC0160E08E810E940B0161E0AD
:100450008E810E940B0160E08E810E940B018BE86F
:1004600091E00197F1F7DF91CF910895CF92DF925C
:10047000EF92FF920F931F93CF93DF936C017C0158
:1004800087E0E80EF11CD0E0C0E0062F10E0B801D4
:100490000C2E02C0759567950A94E2F76170F7011A
:1004A00081917F010E940B012196C430D10579F71B
:1004B000C601DF91CF911F910F91FF90EF90DF90D8
:1004C000CF900C942002CF92DF92EF92FF920F9385
:1004D0001F93CF93DF93EC01F62E642F8C810E9443
:1004E0000B018D818F3F19F060E00E940B010F2DF1
:1004F00010E08F8584FF25C06E0187E0C80ED11CF7
:10050000F12CE12CB8010E2C02C0759567950A9468
:10051000E2F76170F60181916F010E940B01FFEF1C
:10052000EF1AFF0A88E0E816F10461F7CE01DF91C7
:10053000CF911F910F91FF90EF90DF90CF900C948F
:100540002002B80184E0759567958A95E1F7CE01A0
:100550000E9436026F2DCE01DF91CF911F910F9136
:10056000FF90EF90DF90CF900C94360240E0682F20
:100570008EE591E00C94630290917101691710F07F
:100580006FEF690FE62FF0E0E25AFE4F9489890F72
:1005900080680C94B60281E00E94B6028BE39FE172
:1005A0000197F1F70895CF93DF93823029F490916A
:1005B0006D01986090936D018093710110927201AA
:1005C00080E48093730180E18093740180E58093DF
:1005D000750161E0809162010E943901809163019F
:1005E0008F3F19F061E00E94390161E08091640160
:1005F0000E943901CEE5D1E09E012E553140809117
:100600006D0184FD0BC084E090E021962817390726
:1006100044F461E08E810E943901EECF88E090E0E1
:10062000F4CF8BE39DE00197F1F760E080916201E8
:100630000E940B0160E0809164010E940B01809197
:1006400063018F3F19F060E00E940B0180916D0102
:1006500084FD34C063E08EE591E00E943602CBE475
:10066000D6E4CE010197F1F763E08EE591E00E94B8
:1006700036022197F1F763E08EE591E00E943602A1
:1006800083E592E00197F1F762E08EE591E00E9448
:10069000360280916D0180620E94B60284E08093F0
:1006A0006E018CE00E94B6020E94CB0282E0809331
:1006B0006F0186E0DF91CF910C94B60280620E94B8
:1006C000B6028BE496E40197F1F780916D018062A8
:1006D0000E94B60283E592E00197F1F780916D01E7
:1006E00080620E94B602D5CF41E00E94630281E0A1
:1006F00090E00895CF92DF92EF92FF926B017C0120
:1007000041E06DE28EE591E00E9463026627772763
:10071000CB016C197D098E099F094AE00E94C50131
:100720000196FF90EF90DF90CF9008958F929F9267
:10073000AF92BF92EF92FF920F931F93CF93DF93ED
:100740004B012CE330E040E050E00E943208790198
:100750006CE3629FC001639F900D1124881A990A6F
:1007600061E08AE00E94BC02CAE0D0E00AE010E04A
:10077000181419041CF0C930D105E4F0C401B80103
:100780000E941E089C01BC01990F880B990B37FF32
:100790000DC00E947A03C401B8010E941E084B01DB
:1007A000219761E08C2F0E94BC02E2CF4AE00E94B8
:1007B000C501F1CF8CE091E00E9413020AE010E045
:1007C000C630D105E4F0219761E08C2F0E94BC0275
:1007D000C701B8010E941E089C01BC01990F880B3B
:1007E000990B37FF08C00E947A03C701B8010E9425
:1007F0001E087B01E5CF4AE00E94C501F6CFDF91DC
:10080000CF911F910F91FF90EF90BF90AF909F906D
:100810008F900895CF92DF92EF92FF920F931F93E4
:10082000CF93DF93182FEB0180914E0190914F01F0
:100830008230910509F413C170F4009749F10197D2
:1008400009F4A7C0DF91CF911F910F91FF90EF9016
:10085000DF90CF9008958330910509F44EC104973D
:1008600089F760E081E00E94BC028EE191E00E9485
:100870001302609158017091590180915A01909131
:100880005B010E9496032497E9F61A30D9F6DFC07F
:1008900060E084E00E94BC028EE091E00E941302BE
:1008A00060E070E0CB010E9496031092500110921C
:1008B0005101109252011092530110925401109262
:1008C00055011092560110925701C230D105F9F02E
:1008D000C430D10561F1CD2B09F0B4CF81E090E0B7
:1008E00090934F0180934E018CE390E0A0E0B0E044
:1008F0008093500190935101A0935201B093530102
:100900000E94CB0210925D0110925C019BCF84E0AB
:1009100090E090934F0180934E01DF91CF911F9112
:100920000F91FF90EF90DF90CF900C94CB02C0918D
:100930005C01D0915D01C431D1050CF083CF812FD2
:1009400065E00E94120891117DCF02E310E08AE079
:100950000E94E20061E0892B09F060E08AE00E94D9
:100960000B010E946A016B017C010E946A016C19F3
:100970007D098E099F09683E734081059105A8F3A2
:100980000150110921F72196D0935D01C0935C01BC
:1009900059CF60E084E00E94BC028EE091E00E94AA
:1009A0001302609150017091510180915201909118
:1009B00053010E949603C130D10581F1A0F0C230ED
:1009C000D10509F449C0239709F03CCF10924F019B
:1009D00010924E011092500110925101109252014A
:1009E000109253019ACF8091500190915101A091A2
:1009F0005201B0915301CC96A11DB11D85322AEE52
:100A00009207A105B10508F01DCF80935001909386
:100A10005101A0935201B093530114CF8091500122
:100A200090915101A0915201B09153018C339105E5
:100A3000A105B10521F0CC97A109B109E6CF10922B
:100A400050011092510110925201109253011092D4
:100A50004F0110924E0161CF83E090E05ACF60E0E9
:100A600084E00E94BC0287E191E00E941302609141
:100A700050017091510180915201909153010E9457
:100A80009603C130D105D9F008F099CF809150017B
:100A900090915101A0915201B0915301CC96A11DAA
:100AA000B11D85322AEE9207A105B10508F0CACE24
:100AB00021E030E030934F0120934E01A6CF80918A
:100AC000500190915101A0915201B09153018C338A
:100AD0009105A105B10509F4B2CFCC97A109B109DF
:100AE0008093500190935101A0935201B093530110
:100AF000D0934F01C0934E01A5CE60E086E00E94E6
:100B0000BC0289E291E00E94130260915001709151
:100B1000510180915201909153010E949603C3307C
:100B2000D10589F1C430D10509F456C0C230D105D0
:100B300009F088CE8091580190915901A0915A01F5
:100B4000B0915B0140915401509155016091560163
:100B500070915701840F951FA61FB71F80935801EE
:100B600090935901A0935A01B0935B0110925401E4
:100B7000109255011092560110925701D0934F01D7
:100B8000C0934E01CACE8091580190915901A09115
:100B90005A01B0915B01409154015091550160910F
:100BA000560170915701840F951FA61FB71F8093A0
:100BB000580190935901A0935A01B0935B01109290
:100BC0005401109255011092560110925701109243
:100BD0004F0110924E0136CE1A3009F033CE4091BB
:100BE0005001509151016091520170915301415057
:100BF000510961097109409350015093510160936B
:100C00005201709353018091540190915501A0912C
:100C10005601B09157010196A11DB11D8093540159
:100C200090935501A0935601B0935701452B462B45
:100C3000472B09F007CE10924F0110924E014091C0
:100C400058015091590160915A0170915B01840FD4
:100C5000951FA61FB71F8093580190935901A09329
:100C60005A01B0935B0110925401109255011092F9
:100C7000560110925701E6CD1F920F920FB60F92B8
:100C800011242F933F938F939F93AF93BF938091A2
:100C9000350190913601A0913701B0913801309122
:100CA000300123E0230F2D3758F50196A11DB11D0A
:100CB000209330018093350190933601A093370142
:100CC000B09338018091310190913201A0913301AC
:100CD000B09134010196A11DB11D80933101909313
:100CE0003201A0933301B0933401BF91AF919F9132
:100CF0008F913F912F910F900FBE0F901F901895DD
:100D000026E8230F0296A11DB11DD2CF789484B599
:100D1000826084BD84B5816084BD85B5826085BDF7
:100D200085B5816085BD80916E00816080936E0085
:100D30001092810080918100826080938100809177
:100D40008100816080938100809180008160809328
:100D500080008091B10084608093B1008091B000E8
:100D600081608093B00080917A00846080937A00E3
:100D700080917A00826080937A0080917A0081600D
:100D800080937A0080917A00806880937A00109234
:100D9000C10010924F0110924E0110925801109212
:100DA000590110925A0110925B0160E089E00E94A3
:100DB000390160E086E00E94390160E088E00E942D
:100DC000390161E08AE00E94390182E00E94D30289
:100DD0000E94CB0260E080E00E94BC0280E0482ECE
:100DE00080E0582EC2E0D0E093E0892E912C24E0E0
:100DF000622E712C332433948FB7F89440913501CF
:100E00005091360160913701709138018FBF9A017E
:100E1000AB0160E070E080E090E0A0904601B0900F
:100E20004701C0904801D0904901E0904A01F090FC
:100E30004B0100914C0110914D010E9454082B323E
:100E4000314041055105610571058105910509F0A4
:100E500008F47EC086E090E00E9493017C019093AC
:100E600045018093440189E090E00E9493018C0148
:100E7000909343018093420188E090E00E949301A7
:100E80009093410180934001EA94EF2879F4013076
:100E9000110561F490923E0180923D0160913D0107
:100EA00070913E0180913F010E940A0480914401AB
:100EB00090914501019761F410923E0110923D011D
:100EC00060913D0170913E0180913F010E940A04B2
:100ED00080914201909143018130910561F490939A
:100EE0003E0180933D0160913D0170913E018091F2
:100EF0003F010E940A0480914001909141010197B5
:100F000061F4D0933E01C0933D0160913D01709129
:100F10003E0180913F010E940A048FB7F89400912E
:100F200035011091360120913701309138018FBF82
:100F300000934601109347012093480130934901E3
:100F400010924A0110924B0110924C0110924D01E7
:100F50002FB7F8948091350190913601A091370117
:100F6000B09138012FBF4091390150913A01609101
:100F70003B0170913C01841B950BA60BB70B84368B
:100F80009105A105B10530F180913F018F5F8B3054
:100F900040F580933F0170923E0160923D01609167
:100FA0003D0170913E0180913F010E940A042FB7DC
:100FB000F8948091350190913601A0913701B0915C
:100FC00038012FBF8093390190933A01A0933B01E0
:100FD000B0933C014114510409F40ECF0E9400006B
:100FE0000BCF30923F01D7CFEEE5F1E013821282B2
:100FF00084E091E0918380838CE084838FEF85830C
:101000008BE0868385E0878384E0808783E0818727
:1010100082E082871386148615861686178681E0FD
:101020000C94D302991B79E004C0991F961708F01D
:10103000961B881F7A95C9F78095089597FB072E10
:1010400016F4009407D077FD09D00E945D0807FCD4
:1010500005D03EF4909581959F4F089570956195C8
:101060007F4F0895A1E21A2EAA1BBB1BFD010DC0E4
:10107000AA1FBB1FEE1FFF1FA217B307E407F50748
:1010800020F0A21BB30BE40BF50B661F771F881F24
:10109000991F1A9469F760957095809590959B01BA
:1010A000AC01BD01CF0108952A193B094C095D0926
:1010B0006E097F09800B910B0895AA1BBB1B51E1A0
:1010C00007C0AA1FBB1FA617B70710F0A61BB70BB8
:1010D000881F991F5A95A9F780959095BC01CD015D
:1010E0000895EE0FFF1F0590F491E02D0994F894F8
:1010F000FFCF0000000074038C0090018F013A00C4
:101100005345542054494D45005061757365640042
:1011100050726F647563746976652054696D6500FB
:107E0000112484B714BE81FFF0D085E080938100F7
:107E100082E08093C00088E18093C10086E0809377
:107E2000C20080E18093C4008EE0C9D0259A86E02C
:107E300020E33CEF91E0309385002093840096BBD3
:107E4000B09BFECF1D9AA8958150A9F7CC24DD24C4
:107E500088248394B5E0AB2EA1E19A2EF3E0BF2EE7
:107E6000A2D0813461F49FD0082FAFD0023811F036
:107E7000013811F484E001C083E08DD089C08234E0
:107E800011F484E103C0853419F485E0A6D080C0E4
:107E9000853579F488D0E82EFF2485D0082F10E0AE
:107EA000102F00270E291F29000F111F8ED06801E7
:107EB0006FC0863521F484E090D080E0DECF843638
:107EC00009F040C070D06FD0082F6DD080E0C81688
:107ED00080E7D80618F4F601B7BEE895C0E0D1E017
:107EE00062D089930C17E1F7F0E0CF16F0E7DF06D8
:107EF00018F0F601B7BEE89568D007B600FCFDCFD4
:107F0000A601A0E0B1E02C9130E011968C91119780
:107F100090E0982F8827822B932B1296FA010C0160
:107F200087BEE89511244E5F5F4FF1E0A038BF0790
:107F300051F7F601A7BEE89507B600FCFDCF97BE46
:107F4000E89526C08437B1F42ED02DD0F82E2BD052
:107F50003CD0F601EF2C8F010F5F1F4F84911BD097
:107F6000EA94F801C1F70894C11CD11CFA94CF0C13
:107F7000D11C0EC0853739F428D08EE10CD085E9AC
:107F80000AD08FE07ACF813511F488E018D01DD067
:107F900080E101D065CF982F8091C00085FFFCCF94
:107FA0009093C60008958091C00087FFFCCF809118
:107FB000C00084FD01C0A8958091C6000895E0E648
:107FC000F0E098E1908380830895EDDF803219F02E
:107FD00088E0F5DFFFCF84E1DECF1F93182FE3DFCA
:107FE0001150E9F7F2DF1F91089580E0E8DFEE27F6
:047FF000FF270994CA
:027FFE00040479
:00000001FF
